:020000040800F2
:1000000098050020ED010008E327000857200008AC
:10001000E127000835030008F13A0008000000005D
:100020000000000000000000000000009D2B000800
:100030003703000800000000E52700089F2B000898
:10004000070200080702000807020008070200086C
:10005000070200080702000807020008070200085C
:10006000070200080702000807020008070200084C
:10007000070200080702000807020008070200083C
:10008000070200080000000007020008070200083D
:10009000070200080702000807020008070200081C
:1000A000070200080702000807020008070200080C
:1000B00007020008192C00080702000807020008C0
:1000C00007020008070200080702000807020008EC
:1000D00007020008E53A00080702000807020008C6
:1000E00007020008070200080702000807020008CC
:1000F00007020008070200080702000800000000CD
:1001000000000000070200080000000007020008CD
:1001100007020008000000000702000807020008AC
:10012000070200080702000807020008070200088B
:10013000070200080000000000000000070200089D
:10014000070200080702000800000000000000008D
:10015000000000000000000000000000000000009F
:10016000000000000000000000000000070200087E
:10017000070200080000000000000000000000006E
:10018000000000000702000800000000000000005E
:10019000000000000000000000000000000000005F
:1001A000000000000000000007020008070200082D
:1001B000070200080702000807020008000000000C
:1001C000000000000702000800000000000000001E
:1001D0000702000807020008DFF80CD000F098F8CA
:1001E000004800473D430008980500200648804726
:1001F00006480047FEE7FEE7FEE7FEE7FEE7FEE70C
:10020000FEE7FEE7FEE7FEE7FD2B0008D901000848
:100210002DE9F05F0546002092469B46884606463B
:10022000814640241BE0284641464746224600F0CE
:100230005EF853465A46C01A914110D311461846EB
:10024000224600F045F82D1A67EB01084F4622467A
:100250000120002100F03CF817EB00094E41201E60
:10026000A4F10104DFDC484631462A464346BDE896
:10027000F09FD2B201E000F8012B491EFBD270477B
:100280000022F6E710B513460A4604461946FFF762
:10029000F0FF204610BD421C10F8011B0029FBD1C5
:1002A000801A704730B50B460146002020220124F9
:1002B00009E021FA02F59D4205D303FA02F5491B34
:1002C00004FA02F52844151EA2F10102F1DC30BD4A
:1002D000202A04DB203A00FA02F100207047914006
:1002E000C2F1200320FA03F3194390407047202AFB
:1002F00004DB203A21FA02F00021704721FA02F3D0
:10030000D040C2F1200291400843194670470000D6
:10031000064C074D06E0E06840F0010394E8070052
:1003200098471034AC42F6D3FFF75AFF2C5600081A
:100330004C560008FEE77047002240F6B83306E04E
:100340000021491C89B29942FBD3521C92B28242CD
:10035000F6D37047704710B590F825300021012280
:10036000022B03D00421C163012122E003681C6831
:1003700024F00E041C60836C1C6824F480741C60E0
:1003800003681C6824F001041C6090F84430046C7D
:1003900003F01F0302FA03F36360D0E913345C60D7
:1003A000436D33B11C6824F480741C60D0E91634AA
:1003B0005C6080F82520002280F82420084610BDCB
:1003C00070B590F82520002401212346022A07D089
:1003D0000422C26380F8251080F82430012429E02B
:1003E0000268156825F00E0515600268156825F08D
:1003F00001051560826C156825F48075156090F80C
:100400004420056C02F01F0201FA02F26A60D0E992
:1004100013255560426D32B1156825F4807515605D
:10042000D0E91625556080F8251080F82430816BBE
:1004300001B18847204670BD70B5044600F044F90C
:100440000546601C02D004484068044400F03CF9B2
:10045000401BA042FAD370BD540000202DE9F04F9C
:10046000DFF82092002301260324A9F1040B85B0B4
:100470000F2709F1040AABF1040EFAE006FA03F5BE
:100480002A407CD091F804C00CF0030CBCF1010FA1
:1004900002D0BCF1020F26D1D0F808C0CDF800C0C0
:1004A0004FEA430C04FA0CF8CDF810C0DDF800C098
:1004B0002CEA080CCDF800C0D1F80C80DDF810C093
:1004C00008FA0CF8DDF800C048EA0C08C0F808800B
:1004D000D0F804C02CEA050C0D79C5F300159D4039
:1004E00045EA0C0545600D79ED43AD070ED0C568B2
:1004F0004FEA430804FA08FC25EA0C05D1F808C0C5
:100500000CFA08FC4CEA050CC0F80CC00D7905F09B
:100510000305022D16D1DD0800EB850CCDF808C0CF
:10052000DCF820805D074FEAD56C07FA0CF528EA65
:1005300005080D6905FA0CF5DDF808C045EA08055F
:10054000CCF8205005684FEA430CCDF808C004FAF7
:100550000CFC25EA0C0591F804C00CF00308DDF84A
:1005600008C008FA0CF848EA0508C0F800804D6891
:1005700015F4403F7CD0444DD5F860C000E077E0F2
:100580004CF0010CC5F860C02D6E23F0030C05F093
:10059000010500953D4D65440295AD684FEA837CA9
:1005A0004FEA1C7807FA08FC25EA0C05B0F1904FD9
:1005B00006D0DFF8DCC0604505D14FF0010C20E02B
:1005C0004FF0000C1DE0DFF8CCC0604502D14FF0C9
:1005D000020C16E0DFF8C0C0604502D14FF0030CFA
:1005E0000FE0DFF8B8C0604502D14FF0040C08E01E
:1005F000DFF8ACC0604502D14FF0050C01E04FF0D0
:10060000060C0CFA08FC4CEA050C029DC5F808C063
:10061000D9F80050CC46D1F8048095435FEAC82849
:1006200000D51543CCF80050DAF80050D446D1F884
:10063000048095435FEA882800D51543CCF8005024
:10064000DBF80050DC46D1F8048095435FEA883837
:1006500000D51543CCF80050DEF80050F446D1F830
:10066000048095435FEAC83800D51543CCF80050A4
:100670005B1C0A6832FA03F57FF400AF05B0BDE8F1
:10068000F08F00000804014000100240000001400B
:100690000004004800080048000C00480010004812
:1006A000001400480069084000D0012070474269EA
:1006B00021EA02030A4043EA0241816170470AB11C
:1006C000816170478162704701488068704700000F
:1006D00054000020024881684268114481607047DC
:1006E0005400002010B50024032000F077F800200B
:1006F00000F008F808B1012401E000F025F82046D8
:1007000010BD000070B50E4E05460024706898B10B
:100710004FF47A71B1FBF0F00A490968B1FBF0F0CF
:1007200000F068FD40B9102D06D200222946501E67
:1007300000F034F8356000E00124204670BD000070
:1007400054000020500000200C4808B5016E41F014
:1007500001010166016E01F001010091816D41F01E
:1007600080518165806D00F080500090052000F080
:1007700035F8BDE8084000F0A1B8000000100240C4
:10078000002809DB00F01F02012191404009800090
:1007900000F1E020C0F8001170470000F0B40E4BEB
:1007A0001B680C46C3F30223C3F10705042D00D9CF
:1007B0000425191D072901D2002300E0DB1E0126B4
:1007C00006FA05F1491E214099409E40761E1640CA
:1007D0003143F0BC03F0A2B90CED00E0064900F093
:1007E000070208684FF6FF03184040EA0220034A58
:1007F00010430860704700000CED00E00000FA05AF
:100800002B492C4B0A6832214A432B4940B1B0F5A1
:10081000007F086829D020F4C06040F480602CE09C
:100820000868C0F34120022804D051F8800F20F45A
:10083000807022E0D1F8800020F48070C1F8800040
:10084000086820F4C06040F400700860B2FBF3F068
:10085000401C00E0401E4A69520501D50028F9D12C
:10086000486940050AD503207047C0F3412002289B
:1008700006D051F8800F40F4807008600020704767
:10088000D1F8800040F48070C1F88000086820F43E
:10089000C06040F400700860B2FBF3F0401C00E060
:1008A000401E4A695205DBD50028F9D1D8E700007F
:1008B0005000002040420F00007000400248816854
:1008C00041F4804181607047007000402DE9F84399
:1008D0000446006800269D4D00035ED5A86D0027E4
:1008E000C00008D4A86D40F08050A865A86D01270D
:1008F00000F080500090DFF85892D9F8001041F4D1
:100900008071C9F80010FFF7DFFE804606E000BFE7
:10091000FFF7DAFEA0EB080002282BD8D9F8000078
:10092000C005F5D5D5F8900010F4407014D0216CB6
:10093000814211D0D5F89000D5F8901020F4407085
:1009400041F48031C5F89010D5F8901021F4803131
:10095000C5F89010C5F89000C00711D0FFF7B4FE9D
:10096000804641F2883907E0FFF7AEFEA0EB0801B0
:10097000494501D903260BE0D5F890008007F3D54F
:10098000D5F89000216C20F440700843C5F8900021
:100990001FB1A86D20F08050A8652078C00707D04F
:1009A000D5F88800616820F003000843C5F8880086
:1009B0002078800707D5D5F88800A16820F00C00C2
:1009C0000843C5F888002078400707D5D5F8880087
:1009D000E16820F030000843C5F88800207800075F
:1009E00007D5D5F88800216920F0C0000843C5F874
:1009F00088002078800607D5D5F88800616920F442
:100A000040600843C5F888002078400607D5D5F82F
:100A10008800A16920F440500843C5F88800207878
:100A2000000607D5D5F88800E16920F44040084366
:100A3000C5F888002088C00507D5D5F88800216A48
:100A400020F440300843C5F888002088800507D589
:100A5000D5F88800616A20F440200843C5F8880072
:100A6000208840050FD5D5F88800A16A20F44010F1
:100A70000843C5F88800A06AB0F5801F03D1E86874
:100A800040F48010E860208800050FD5D5F8880074
:100A9000E16A20F440000843C5F88800E06AB0F538
:100AA000800F03D1E86840F48010E8602088C0041B
:100AB0000FD5D5F88800216B20F040700843C5F8A9
:100AC0008800206BB0F1807F03D1E86840F480108B
:100AD000E86020884FF0006180040ED5D5F88800CA
:100AE000626B20F040601043C5F88800606B88425C
:100AF00003D1E86840F48010E860208840040ED5F7
:100B0000D5F88800A26B20F040601043C5F888003B
:100B1000A06B884203D1E86840F48010E860208828
:100B200000040FD5D5F88800E16B20F04050084351
:100B3000C5F88800E06BB0F1805F03D1E86840F44D
:100B40008030E8603046BDE8F883000000100240C5
:100B5000007000402DE9F0470E4605004FF00007F9
:100B600025D0DFF8AC81D8F8000000F00F00B042CB
:100B70000CD2D8F8001021F00F013143C8F8001052
:100B8000D8F8000000F00F00B04210D12968614C85
:100B9000C80741F2883A5AD06868DFF87C91032888
:100BA00008D0022820682DD0400500282CDB012029
:100BB000BDE8F08720688001F9D5E06800F0030205
:100BC000E068C0F30310401C032A19D0534A00BF49
:100BD000B2FBF0F0E268C2F306225043E268C2F3CF
:100BE0004162521C5200B0FBF2F0484517D9A06890
:100BF00010F0F00F0CD0880711D5A86840B10EE0B6
:100C0000474AE5E78003D0E700F0B6F8484506D943
:100C1000A06820F0F00040F08000A0608027A0686D
:100C2000696820F003000843A060FFF74DFD81468E
:100C300006E000BFFFF748FDA0EB090151453AD897
:100C4000A068696800F00C00B0EB810FF2D1286851
:100C5000810714D5400703D5A06840F4E060A06088
:100C60002878000705D5A06820F4605040F4E060C3
:100C7000A060A068A96820F0F000084304E0802F7D
:100C800003D1A06820F0F000A060D8F80010404622
:100C900001F00F01B14216D9016821F00F01314373
:100CA0000160FFF711FD074607E000BFFFF70CFDED
:100CB000C11B514501D903207AE7D8F8000000F0A4
:100CC0000F00B042F2D12878400705D5A068E96846
:100CD00020F4E0600843A0602878000706D5A068EB
:100CE000296920F4605040EAC100A06000F044F897
:100CF000A1680C4AC1F30311515C01F01F01C84007
:100D00000949086009480068BDE8F047FFF7FABCE8
:100D1000002002400010024000B4C4040024F4008B
:100D200000366E01EC5500085000002054000020F1
:100D30000548064900688968054AC1F30221515CEB
:100D400001F01F01C8407047500000200010024011
:100D5000FC5500080548064900688968054AC1F342
:100D6000C221515C01F01F01C840704750000020B3
:100D700000100240FC550008184910B58868C0F3FF
:100D800081021748012A0BD08A68164BC2F38102F0
:100D9000022A06D08A68C2F38102032A03D0002007
:100DA00010BD184610BDCA6802F00304CA68C2F339
:100DB0000312521C032C02D0B0FBF2F001E0B3FB93
:100DC000F2F0CA68C968C2F306225043C1F3416118
:100DD000491C4900B0FBF1F010BD000000100240BA
:100DE0000024F40000366E012DE9F84304007AD0A7
:100DF0002078FA4DC00747D0A868E96800F00C00D9
:100E000001F003010C2802D0082817D001E00329C3
:100E100014D06068B0F5803F17D0B0F5A02F2868D7
:100E200017D020F480302860286820F480202860C3
:100E30006068E0B1FFF748FC064614E028688003CC
:100E400022D560680028D2D01EE0286840F48030A7
:100E5000EDE740F480202860F7E700BFFFF734FC9F
:100E6000801B642870D828688003F7D50CE0FFF752
:100E70002BFC064605E000BFFFF726FC801B64281C
:100E8000F0D828688003F7D4207880074CD5A8686C
:100E9000E96800F00C0001F003010C2802D00428DE
:100EA0000DD001E002290AD0E068002828682BD084
:100EB00040F480702860FFF707FC064619E02868B8
:100EC000400502D5E068002891D06868217C20F0B8
:100ED000FE4040EA01606860C1480068FFF712FC0C
:100EE000002800D120E076E1FFF7EEFB801B02280E
:100EF000B8D828684005F7D56868217C20F0FE4006
:100F000040EA016068600FE020F480702860FFF71D
:100F1000DBFB064605E000BFFFF7D6FB801B02287F
:100F2000A0D828684005F7D42078000729D5606943
:100F30000028D5F8940013D040F00100C5F89400C3
:100F4000FFF7C2FB064606E090E000BFFFF7BCFBE0
:100F5000801B022886D8D5F894008007F6D510E0CB
:100F600020F00100C5F89400FFF7AEFB064604E050
:100F7000FFF7AAFB801B022878D8D5F894008007D9
:100F8000F6D42078400761D5A86D0026C00008D4AB
:100F9000A86D40F08050A865A86D012600F0805033
:100FA000009090480168C90511D40168804641F459
:100FB00080710160FFF788FB074604E0FFF784FBC0
:100FC000C01B022852D8D8F80000C005F6D5A0688A
:100FD000012815D00528D5F8900016D020F0010082
:100FE000C5F89000D5F8900020F00400C5F89000F6
:100FF000A06841F28838B8B1FFF766FB07460EE0FB
:10100000D5F8900040F00100F0E740F00400C5F88A
:101010009000F5E7FFF758FBC11B414526D8D5F8EE
:1010200090008007F6D50CE0FFF74EFB074604E082
:10103000FFF74AFBC11B414518D8D5F8900080073F
:10104000F6D41EB1A86D20F08050A86520788006E7
:1010500029D5A0690028D5F8980013D040F00100E8
:10106000C5F89800FFF730FB064606E077E000BFC2
:10107000FFF72AFB801B022877D8D5F89800800755
:10108000F6D510E020F00100C5F89800FFF71CFB32
:10109000064604E0FFF718FB801B022865D8D5F848
:1010A00098008007F6D4E069F0B3A968C1F3810124
:1010B000032961D00228286820F0807028600BD0B6
:1010C000E86820F00300E860E86847490840E86005
:1010D000FFF7FAFA04464BE0FFF7F6FA064604E09B
:1010E000FFF7F2FA801B02283FD828688001F7D466
:1010F000F4E908016FF00F0202EB01110843218AA5
:101100005204490802EB4151A26841EA0221084316
:10111000217D4FF07E42490802EB41610843217B6B
:1011200040EAC160E96800E062E0304A11400843EB
:10113000E860286840F080702860E86840F08070BF
:10114000E860FFF7C1FA044605E000BFFFF7BCFA0C
:10115000001B022809D828688001F7D548E004E080
:10116000FFF7B2FA001B022802D90320BDE8F8837A
:1011700028688001F4D43BE00128F7D0E868226AAF
:1011800000F00301914226D1616A00F0F0020901EA
:10119000103991421FD1A26A00F4FE41B1EB022F37
:1011A00019D194F82C2000F07841B1EBC26F12D124
:1011B000218E00F4C00249084905A1F500119142B1
:1011C00009D194F8341000F0C06049084906A1F133
:1011D000007181420CD00120C8E7000000100240DD
:1011E0005400002000700040FFFFEEFE0C809F01C5
:1011F0000020BBE710B5401EB0F1807F01D3012075
:1012000010BD4FF0E02460610F21601702F086FCF2
:101210000020A06107202061002010BD70477047AA
:101220007047704770477047F0B590F83C20012A2E
:101230003AD0012580F83C50022280F83D20036816
:101240005A689C68194E1A4FB34201D0BB4204D170
:1012500022F4700C4A6842EA0C02DFF858C002EA35
:101260000C02D1F800C04CEA020CC3F804C00268BA
:10127000B2420DD0B2F1804F0AD00F4B9A4207D044
:101280000E4B9A4204D0BA4202D00D4B9A4204D17E
:10129000896824F080031943916080F83D50002153
:1012A00080F83C100846F0BD0220F0BD002C014043
:1012B000003401408FFFFFFD0004004000080040A3
:1012C00000400140704710B5040003D094F83D0081
:1012D00010B107E0012010BD002084F83C0020463A
:1012E00000F022F8022084F83D00211D206801F062
:1012F00099FC012084F8480084F83E0084F83F00FF
:1013000084F8400084F8410084F8420084F84300E7
:1013100084F8440084F8450084F8460084F84700C7
:1013200084F83D00002010BD08B501681048B1F1F7
:10133000804F14D00F4A914219D1816D41F00201C2
:101340008165806D002200F00200009001211D20C7
:10135000FFF724FABDE808401D20FFF711BA816DA0
:1013600041F001018165806D00F00100009008BD31
:10137000001002400004004090F83D10012901D007
:1013800001207047022180F83D100168CA6842F0D0
:101390000102CA600068104988420ED0B0F1804F47
:1013A0000BD00E49884208D00D49884205D00D491E
:1013B000884202D00C49884207D181680B4A11400B
:1013C000062906D0B1F5803F03D0016841F0010144
:1013D0000160002070470000002C01400004004024
:1013E00000080040003401400040014007000100B7
:1013F00070B5044690F83C000025012814D0012661
:1014000084F83C60022084F83D0022689068364BE6
:10141000184020F47F409060086870282ED010DCBF
:1014200010F00F0F03D021E04FF0020070BD4FEA23
:101430002012072A1AD2DFE802F0525252524A38DA
:1014400040002A4BC21A984249D009DCB0F5805FAF
:101450000DD0B0F5005F1CD0B0F1101F06D13EE0FA
:10146000102A3CD0202A3AD0502A38D0012584F8BE
:101470003D60002084F83C00284670BDCB68D1E96F
:101480000121206801F033FC2068816841F0770178
:1014900009E0CB68D1E90121206801F028FC20682F
:1014A000816841F480418160E1E7CA684968206849
:1014B00001F0C8FD5021206806E0CA68496820682C
:1014C00001F0D1FD6021206801F01CFCCFE7CA6863
:1014D0004968206801F0B6FD40212068F4E72268E1
:1014E00001461046F0E7000088FFCEFF2000100004
:1014F000704770B50446006801694FF00005C943A4
:10150000890715D4C168C943890711D4E91E01614F
:1015100001202077206880698007204602D0FFF7ED
:10152000E7FF04E000F00AF9204600F0CCF9257747
:1015300020680169C943490717D4C168C9434907ED
:1015400013D46FF0040101610220207720688069C4
:1015500010F4407F204602D0FFF7CAFF04E000F0FD
:10156000EDF8204600F0AFF9257720680169C943FE
:10157000090716D4C168C943090712D46FF00801DE
:101580000161042020772068C0698007204602D0CE
:10159000FFF7AEFF04E000F0D1F8204600F093F929
:1015A000257720680169C943C90617D4C168C943B2
:1015B000C90613D46FF0100101610820207720685C
:1015C000C06910F4407F204602D0FFF791FF04E08D
:1015D00000F0B4F8204600F076F92577206801691C
:1015E000C943C90708D1C168C943C90704D1891EC5
:1015F0000161204600F0E6F920680169C943090647
:1016000009D4C168C943090605D46FF0800101619E
:101610002046FFF704FE20680169C943C90509D4C3
:10162000C168C943090605D46FF480710161204681
:10163000FFF7F4FD20680169C943490609D4C16870
:10164000C943490605D46FF040010161204600F00E
:1016500005FA20680169C943890609D4C168C943EC
:10166000890605D46FF0200101612046FFF7D8FDFF
:1016700020680169C943C90209D4C168C943C902C4
:1016800005D46FF4801101612046FFF7CBFD20687F
:101690000169C943890209D4C168C943890205D4D3
:1016A0006FF4001101612046FFF7BBFD206801695E
:1016B000C943490209D4C168C943490205D46FF43A
:1016C000800101612046FFF7AEFD20680169C94332
:1016D00009020BD4C168C943090207D46FF40001A1
:1016E00001612046BDE87040FFF7ECBD70BD000011
:1016F00010B586B0044614216846FEF7C1FD206887
:10170000B0F1804F15D10C48C16C41F00101C164AA
:10171000C06C694600F00100059002200090019025
:10172000002002900390012004904FF09040FEF7BB
:1017300095FE06B010BD000000100240704770B565
:10174000044690F83C0000260D4601280BD00120ED
:1017500084F83C000C2A4AD007DC82B1042A20D04D
:10176000082A06D131E0022070BD102A53D0142A75
:1017700063D00126002084F83C00304670BD20680C
:1017800001F0CAFA2068816941F00801816120688E
:10179000816921F004018161206881692A6911430E
:1017A00011E0206801F006FB2068816941F40061C6
:1017B00081612068816921F480618161206881698B
:1017C0002A6941EA02218161D4E7206801F03AFBED
:1017D0002068C16941F00801C1612068C16921F038
:1017E0000401C1612068C1692A69114311E02068C0
:1017F00001F070FB2068C16941F40061C16120689B
:10180000C16921F48061C1612068C1692A6941EA26
:101810000221C161AEE7206801F0A4FB2068016DE0
:1018200041F0080101652068016D21F004010165A6
:101830002068016D2A69114311E0206801F0CAFB9C
:101840002068016D41F4006101652068016D21F49B
:10185000806101652068016D2A6941EA0221016504
:1018600088E710B5040003D094F83D0010B107E0FC
:10187000012010BD002084F83C00204600F022F832
:10188000022084F83D00211D206801F0CBF90120E1
:1018900084F8480084F83E0084F83F0084F8400053
:1018A00084F8410084F8420084F8430084F844003E
:1018B00084F8450084F8460084F8470084F83D0029
:1018C000002010BD7047704730B50446022269B150
:1018D000042912D0082917D00C291CD0102921D096
:1018E00094F84300012824D0012030BD94F83E0034
:1018F0000128F9D184F83E201DE094F83F0001282A
:10190000F2D184F83F2016E094F840000128EBD192
:1019100084F840200FE094F841000128E4D184F8D5
:10192000412008E094F842000128DDD184F84220EB
:1019300001E084F843200122206801F0CBF9194B23
:1019400020681949194A984209D0884207D0904224
:1019500005D0174DA84202D0164DA84203D1456CC0
:1019600045F400454564206898420CD0B0F1804FA2
:1019700009D0114B984206D0104B984203D08842B0
:1019800001D0904207D181680D4A1140062906D046
:10199000B1F5803F03D0016841F0010101600020F2
:1019A00030BD0000002C01400034014000400140E7
:1019B000004401400048014000040040000800408D
:1019C0000700010070B50068214988423FD1214DD0
:1019D00001212846FEF766FE00B101201E4C0221BF
:1019E00060702846FEF75EFE00B1012020710421E0
:1019F0002846FEF757FE00B10120E07101214FF0AB
:101A00009040FEF74FFE00B101200021A07201229C
:101A10004FEA010301EB4100255C25B1012D07D000
:101A2000022D11D10BE005196D786DB922540BE030
:101A300005196E783EB9AA700225255404E00519EF
:101A40006D78012D00D12354491C0429E2DB70BDBF
:101A5000000400400004004860000020704790F837
:101A60008010012918D0012180F880102421C0F8AD
:101A7000841050F8641B0A680B6823F001030B60A4
:101A800022F000510022026050F8643C19602021CD
:101A90000162027710467047022070477047704716
:101AA00070B5044690F8800001281DD0012084F80C
:101AB00080002420C4F8840020680568026822F0B1
:101AC000010202602068826822F060620A4382603C
:101AD000204601F0DBFA206805602020C4F884006D
:101AE000002084F8800070BD022070BD70B50446EF
:101AF00090F8800001281DD0012084F88000242067
:101B0000C4F8840020680568026822F001020260BF
:101B10002068826822F060420A438260204601F019
:101B2000B5FA206805602020C4F88400002084F8FD
:101B3000800070BD022070BD704770477047000084
:101B40002DE9F04103680446D86919689A6840F69F
:101B50000F0528424FF0000509D186067ED501F019
:101B6000200602F080573E4378D0216F27E1A94E2E
:101B7000A94F16400F40374370D0C70709D0CF0593
:101B800007D501271F62D4F88C3043F00103C4F855
:101B90008C3083070AD5D30708D0276802233B621D
:101BA000D4F88C3043F00403C4F88C3043070AD5D2
:101BB000D30708D0276804233B62D4F88C3043F065
:101BC0000203C4F88C3003070CD501F02003334323
:101BD00008D0266808233362D4F88C3043F0080319
:101BE000C4F88C3003050BD54B0109D526684FF49A
:101BF00000633362D4F88C3043F02003C4F88C3097
:101C0000D4F88C30002B3AD0800609D501F02000A2
:101C100002F08051084303D0216F09B12046884764
:101C2000D4F88C0021688968490602D410F0280F86
:101C300027D0204601F0EAFA2068806840061BD5CC
:101C40002068083050E8001F21F0400140E80012F1
:101C5000002AF5D1E06F78B1704900E017E08163A8
:101C6000E06FFEF7ADFB002809D0E06F816B00E06C
:101C70002046BDE8F04108472046FFF75FFFBDE87A
:101C8000F0812046FFF75AFFC4F88C50F7E7E76E63
:101C90002026012F7ED1C7067CD5CF067AD510200D
:101CA000186220688068400642D5E16F0868406885
:101CB0000004000CE3D0B4F85C208242DFD9A4F821
:101CC0005E000868006880062BD4206850E8001F7A
:101CD00021F4807140E80012002AF6D12068083013
:101CE00050E8001F21F0010140E80012002AF5D160
:101CF0002068083050E8001F21F0400140E8001241
:101D0000002AF5D1C4F88860E566216851E8000F23
:101D100020F0100041E80002002AF6D1E06FFEF743
:101D20001AFBB4F85C00B4F85E10401A81B22CE0E3
:101D3000B4F85C00B4F85E10401A81B2B4F85E00EA
:101D400000289CD000299AD0226852E8000F20F485
:101D5000907042E80003002BF6D12E4BDB43206845
:101D6000083050E8002F1A4040E80027002FF6D135
:101D7000C4F88860E5662567226852E8000F20F005
:101D8000100042E80003002BF6D12046FFF786FE44
:101D900075E7FFE7C70209D5570207D54FF4801052
:101DA00018622046BDE8F041FFF7C7BE03060AD51A
:101DB00001F0800302F40002134304D0616F002994
:101DC0007FF456AF5BE7420611D54A060FD5204691
:101DD000016851E8002F22F0400241E80023002B67
:101DE000F6D1C0F88460456700F034F947E7020295
:101DF00006D54A0004D52046BDE8F041FFF79CBE59
:101E0000C001C5D50029C3DA2046BDE8F041FFF77F
:101E100046BE00000100001020010004F931000856
:101E200010B5040003D0D4F8840010B107E00120FD
:101E300010BD002084F88000204600F027F8242000
:101E4000C4F884002068016821F001010160204687
:101E500001F01EFC0128EBD0A06A10B1204601F071
:101E600037F92068416821F4904141602068816819
:101E700021F02A0181602068016841F001010160C0
:101E80002046BDE8104001F087B9000010B598B0B9
:101E90000446142111A8FEF7F3F944216846FEF721
:101EA000EFF91B492068884230D101200024CDE998
:101EB00000046846FEF70AFD08B1FEF74BFA154824
:101EC000016E41F480410166016E01F4804116917A
:101ED000C16C41F00101C164C06C11A900F00100A6
:101EE00016904FF4C06011900220CDE91204072033
:101EF000CDE914404FF09040FEF7B0FA00220121E6
:101F00002520FEF74BFC2520FEF73AFC18B010BD4B
:101F1000003801400010024030B4D0F88830202B47
:101F200020D1E1B1DAB190F88030012B1AD0012331
:101F300080F880300023C3660B4C0368A3420BD0AB
:101F40005B681B0208D5046854E8003F43F08063D7
:101F500044E80035002DF6D130BC01F0D3BC01209F
:101F600030BC70470220FBE70080004008498842EF
:101F70000CD1084901F1180388784A781A54401C9A
:101F800088700122491C0248FFF7C6BF7047000055
:101F900004010020080000202DE9F8430446D0F891
:101FA00084001F4616460D46202851D1DDB1D6B11A
:101FB00094F8800001284BD0012084F880004FF075
:101FC0000008C4F88C802120C4F884001834FEF77F
:101FD0007BFBA6878146E68754F8100C183CB0F5C9
:101FE000805F03D004E00120BDE8F883206920B1C0
:101FF0002E46002584F8808010E00026FAE7802134
:10200000204601F00BFDB8B9C6B116F8010B2168E6
:102010008862B4F85600401EA4F85600B4F8560082
:102020004B464FF0000200970028E8D14FF04001E6
:10203000204601F0F3FC30B10320D5E735F8020B60
:10204000C0F30800E3E72020C4F884000020CBE7B9
:102050000220C9E77047FEE770B50824002500F0AC
:1020600065FD13E06806050E002000F047FD142012
:1020700001F074FF142001F071FF012000F03EFD1B
:10208000142001F06BFF00F045FD0543641EE4B22F
:10209000E8D2002000F032FD142001F05FFF00F0D4
:1020A00067FD284670BD70B50446082516E000F0AF
:1020B00025FD142001F052FF04F0800000F04CFDDB
:1020C000142001F04BFF6006040E142001F046FFBF
:1020D000012000F013FD142001F040FF6D1EEDB251
:1020E0004FF00000E3D200F009FDBDE8704014207D
:1020F00001F034BF10B5012000F02EFD142001F0D6
:102100002DFF012000F0FAFC142001F027FF002031
:1021100000F022FD142001F021FF002000F0EEFC71
:10212000BDE81040142001F019BF10B5002000F0E8
:10213000E5FC142001F012FF002000F00DFD14203A
:1021400001F00CFF012000F0D9FC142001F006FF83
:10215000012000F001FDBDE81040142001F0FEBE9A
:1021600010B5052400F0E2FC142001F0F7FE012078
:1021700000F0C4FC142001F0F1FE05E0641EA4B2DE
:10218000142001F0EBFE6CB100F0C4FC0028F5D186
:1021900000F0EEFC002000F0B1FC142001F0DEFEA7
:1021A000002010BD00F0E4FCFFF7BFFF012010BDD0
:1021B00000B585B014216846FEF762F84FF6FF704F
:1021C000009000200321CDE90201019069460248F8
:1021D000FEF744F905B000BD0008004800B585B021
:1021E00014216846FEF74CF84FF6FF70009001206E
:1021F0000190032003900020029069460248FEF7F8
:102200002DF905B000BD00000008004870B500249D
:1022100006462146204600F013F900F055F94FF428
:102220009635304600F020F9641CAC42F9D370BDFD
:1022300001A100F061B800002020202020202020F3
:10224000202020202020202020202020000000000E
:1022500030B587B014216846FEF712F81E48C16CED
:1022600041F00401C164C16C01F004010591C16C2D
:1022700041F00101C164C16C01F001010591C16C23
:1022800041F00201C164C06C012500F0020005901C
:102290004FF44870CDE90005002403946946029488
:1022A0000E48FEF7DBF8280203940090CDE90154B4
:1022B0004FF0904469462046FEF7D0F8FFF78EFFB6
:1022C000A06940F48070A06104481830016841F4AE
:1022D0000871016007B030BD0010024000040048E2
:1022E000203AD2B2034B02EB420203EB021200F09F
:1022F00019B800001C440008F0B50E46074600253A
:1023000040F23F1407E021463846FFF7E9FF103C52
:102310006D1CA4B2761C3278002A01D0142DF2D3A1
:10232000F0BD00002DE9F04791468A46002604469C
:1023300000F086F8DFF84080012700BF00F0C4F805
:102340005FF0000539F8160007FA05F1084240462B
:1023500001D1408800E0008800F086F86D1C102D47
:10236000F0D3641CE4B25146204600F069F8761CB4
:10237000182EE3D3BDE8F0870000002010B5FFF76A
:1023800067FF002000F014F8084CA080A088A0F59A
:102390000241303906D000F0AFFA002000F008F812
:1023A000A08010BD00F01FFAF7E700000000002039
:1023B00070B51D490A6842F400720A600A6842F466
:1023C00080720A60184C103C226842F020022260A1
:1023D000164A1060086840F02000086000BF00BF87
:1023E00000BF206840F020002060206840F480702A
:1023F0002060FFF7DDFE4FF09041886A40F4807066
:10240000886200BF00BF00BF0848001F006885B297
:10241000886940F480708861FFF7E0FE206840F42E
:1024200000702060284670BD280400481408004849
:1024300001B5BDF800000149488008BD000000203A
:1024400010B50C460146202000F070F82146BDE88A
:102450001040212000F06AB801B5BDF80000014924
:10246000088008BD0000002030B5154B1968154ADA
:102470008CB2116841F400711160124910390D6875
:1024800045F480750D600D6845F020050D601860FD
:10249000106840F02000106000BF00BF00BF086857
:1024A00040F020000860086840F48070086000BFB9
:1024B00000BF00BF086840F4007008601C6030BDB9
:1024C0001408004828040048164A10B51068164938
:1024D00083B2086840F400700860086840F48070B7
:1024E000086011481038046844F020040460222475
:1024F00014600C6844F020040C6000BF00BF00BFF3
:10250000016841F020010160016841F480710160BF
:1025100000BF00BF00BF016841F40071016013609B
:1025200010BD0000140800482804004870B51A4C7B
:1025300022681A4B95B21A6842F400721A601A683F
:1025400042F480721A60154A103A166846F0200666
:1025500016602060186840F02000186000BF00BFBF
:1025600000BF106840F020001060106840F48070D8
:1025700010602160186840F02000186000BF00BFA4
:1025800000BF106840F020001060106840F48070B8
:102590001060256070BD0000140800482804004841
:1025A0002DE9F04F87B014216846FDF769FE4048D9
:1025B000C16C41F00401C164C16C01F004010591DA
:1025C000C16C41F02001C164C16C01F02001059192
:1025D000C16C41F00101C164C16C01F001010591C0
:1025E000C16C41F00201C164C16C01F002010591AE
:1025F000C16C41F00801C164C06CDFF8B88000F024
:1026000008004FF6FF740590002221464046FEF771
:1026100056F84FF480764FF09049002231464846F4
:10262000FEF74DF8DFF890A0002204215046FEF797
:1026300046F8DFF888B04FF47877002239465846DC
:10264000FEF73DF80125CDE90045002402946946D6
:1026500040460394FDF702FFCDE900546946484621
:102660000294FDF7FBFE0720CDE9000469465846B9
:102670000294FDF7F3FE0096CDE901546946484601
:102680000394FDF7EBFE04200090CDE90154694668
:1026900050460394FDF7E2FE0097CDE901546946E8
:1026A00058460394FDF7DAFE07B0BDE8F08F00004E
:1026B0000010024000080048000C004800040048D8
:1026C00010B58EB000240794089409940A940B94D2
:1026D0000C941C2168460D94FDF7D2FD16484FF06E
:1026E000804101604F21C0E9011440F2E731C0E9A7
:1026F00003148461FEF7E7FD4FF48050079007A9AB
:102700000D48FEF775FE0C48FFF7ABF80B940BA9CC
:1027100009480D94FEF788FD6020CDE9000402947D
:102720000422694604480494FFF709F80248FEF7BA
:10273000DFFF0EB010BD00006C00002010B588B0A7
:102740000024134800940194029403940494059483
:102750000E490694016040F23E61C0E9011440F266
:10276000E731C0E903148461FEF7ADFD4FF48050FA
:10277000009069460648FEF73BFE049404A904480D
:102780000694FEF751FD08B010BD000000040040A3
:10279000B8000020114810B50F4901604FF41651E0
:1027A0004160002181600C22C160C0E90412816196
:1027B000C161016241628162FFF732FB002107487B
:1027C000FFF794F900210548FFF76AF9BDE81040CA
:1027D0000248FFF744B9000000380140040100201E
:1027E000FEE77047704730B501210020FFF79EFEDD
:1027F0004FF47A70FDF7A0FD00210120FFF796FE4F
:1028000041F290711020FFF791FE4FF41C516020AF
:10281000FFF78CFE01216120FFF788FE0221462090
:10282000FFF784FE48F210011320FFF77FFE48F205
:10283000FE011220FFF77AFE4FF4A0610220FFF79D
:1028400075FE41F230010320FFF770FE40F20334C1
:1028500021463020FFF76AFE21463120FFF766FE51
:1028600021463220FFF762FEE51E29463320FFF79E
:102870005DFE03213420FFF759FE21463520FFF786
:1028800055FE14213620FFF751FE21463720FFF771
:102890004DFE21463820FFF749FE21463920FFF73B
:1028A00045FE29463A20FFF741FE03213B20FFF772
:1028B0003DFE21463C20FFF739FE4FF4A0513D205C
:1028C000FFF734FE4FF400719220FFF72FFE2146F0
:1028D0009320FFF72BFE40F60D019020FFF726FE18
:1028E00041F218010320FFF721FEBDE8304040F21D
:1028F00073110720FFF71ABE10B543F20801E32059
:10290000FFF714FE1221E720FFF710FE41F23121FC
:10291000EF20FFF70BFE00210120FFF707FE4FF429
:10292000E0610220FFF702FE41F230010320FFF7D1
:10293000FDFD00210420FFF7F9FD40F207210820EA
:10294000FFF7F4FD00210920FFF7F0FD00210A2028
:10295000FFF7ECFD00210C20FFF7E8FD00210D2022
:10296000FFF7E4FD00210F20FFF7E0FD002110201C
:10297000FFF7DCFD07211120FFF7D8FD0021122011
:10298000FFF7D4FD00211320FFF7D0FDC820FDF78D
:1029900053FD41F290611020FFF7C8FD40F227215E
:1029A0001120FFF7C3FD3220FDF746FD1D21122047
:1029B000FFF7BCFD3220FDF73FFD4FF4006113200F
:1029C000FFF7B4FD14212920FFF7B0FD0B212B20C8
:1029D000FFF7ACFD3220FDF72FFD00212020FFF78F
:1029E000A5FD00212120FFF7A1FD07213020FFF7E1
:1029F0009DFD40F207713120FFF798FD062132203E
:102A0000FFF794FD40F204713520FFF78FFD41F68A
:102A100004713620FFF78AFD04213720FFF786FD79
:102A200000213820FFF782FD40F206713920FFF7C0
:102A30007DFD40F201713C20FFF778FD0F213D2024
:102A4000FFF774FD00215020FFF770FDEF215120AA
:102A5000FFF76CFD00215220FFF768FD40F23F11A7
:102A60005320FFF763FD4FF41C516020FFF75EFD1C
:102A700001216120FFF75AFD00216A20FFF756FD72
:102A800000218020FFF752FD00218120FFF74EFD3D
:102A900000218220FFF74AFD00218320FFF746FD39
:102AA00000218420FFF742FD00218520FFF73EFD35
:102AB00010219020FFF73AFD00219220FFF736FD0C
:102AC00003219320FFF732FD4FF488719520FFF723
:102AD0002DFD00219720FFF729FD00219820FFF709
:102AE00025FD41F218010320FFF720FDBDE810404D
:102AF00040F273110720FFF719BD000008B1044828
:102B000001E003481030016841F040010160704766
:102B10001804004810B580210348FDF7C3FD0128C3
:102B200000D0002010BD00000004004800B585B0B2
:102B300014216846FDF7A4FB80200090002001903E
:102B4000012002900220039069460248FDF786FCAE
:102B500005B000BD0004004808B1044801E0034886
:102B60001030016841F0800101607047180400488E
:102B700000B585B014216846FDF782FB80200090E7
:102B80001120019000200290022003906946024823
:102B9000FDF764FC05B000BD000400487047FDF778
:102BA00099BD00B593B038216846FDF769FB142143
:102BB0000EA8FDF765FB4FF40070FDF721FE022023
:102BC000C1010391402104910090079008901421C5
:102BD000CDE909010B900C900D906846FEF704F9C1
:102BE0000F200E9003200F90002010901190129053
:102BF00002210EA8FDF7AEFF13B000BD0548016825
:102C000041F47001016003494FF0006080390860B1
:102C10007047000088ED00E00148FEF76ABC000044
:102C2000B80000202DE9F0430268234B234D244EC9
:102C3000244C4FF08049984207D0484505D0A8421F
:102C400003D0B04201D0A04203D122F070074A68FD
:102C50003A431D4FDFF874C0DFF8748098420DD0FE
:102C600048450BD0A84209D0B04207D0A04205D0B9
:102C7000B84203D0604501D0404503D122F44075ED
:102C8000CA682A434D6922F080022A4302608A689A
:102C9000C2620A688262984207D0A04205D0B84258
:102CA00003D0604501D0404501D10969016301218C
:102CB0004161BDE8F0830000002C014000040040A9
:102CC0000008004000340140004001400044014041
:102CD0000048014010B501F01F030121046A99402A
:102CE0008C430462016A9A401143016210BD10B521
:102CF000846842EA032224F47F440A432243826028
:102D000010BD00008268034B1A400A4342F00701DD
:102D1000816070478FFFCFFF2DE9F043026A22F0F8
:102D200001020262056A436882691C4C25F00205B3
:102D300022400C6822F0030214438A68194E2A4389
:102D4000174D194FDFF864C0DFF86490A84207D030
:102D5000B04205D0B84203D0604501D0484506D105
:102D600022F00808CA6842EA080222F00402A842D7
:102D700007D0B04205D0B84203D0604501D04845E5
:102D800005D14D6923F440731D438B692B43436088
:102D90008461496841630262BDE8F0838FFFFEFFF2
:102DA000002C01400034014000400140004401403B
:102DB00000480140F0B5026A22F010020262056A82
:102DC00042688369194C1B4E23400C6823F44073FE
:102DD00043EA042425F020038D6843EA0513144DCB
:102DE000A84201D0B04206D1CF6823F0800343EA65
:102DF000071323F04003A8420AD0B04208D00E4D7A
:102E0000A84205D00D4DA84202D00D4DA84207D1D1
:102E10004D6922F4406242EA85028D6942EA8502E8
:102E200042608461496881630362F0BDFF8FFFFEE9
:102E3000002C0140003401400040014000440140AA
:102E400000480140F0B5026A22F480720262056A0D
:102E50004368C269194C1B4E22400C6822F00302E1
:102E6000144325F400728D6842EA0522144DA842ED
:102E700001D0B04206D1CF6822F4006242EA0722B4
:102E800022F48062A8420AD0B04208D00E4DA84277
:102E900005D00E4DA84202D00D4DA84207D14D6974
:102EA00023F4405343EA05138D6943EA0513436055
:102EB000C4614968C1630262F0BD00008FFFFEFF7C
:102EC000002C01400034014000400140004401401A
:102ED00000480140F0B5026A22F480520262056A9D
:102EE0004268C369194C1B4E23400C6823F440739D
:102EF00043EA042425F400538D6843EA0533144D56
:102F0000A84201D0B04206D1CF6823F4004343EA7F
:102F1000073323F48043A8420AD0B04208D00E4DB4
:102F2000A84205D00D4DA84202D00D4DA84207D1B0
:102F30004D6922F4404242EA85128D6942EA8512C7
:102F40004260C461496801640362F0BDFF8FFFFE07
:102F5000002C014000340140004001400044014089
:102F60000048014030B5026A22F480320262046AED
:102F70004268036D114D2B400D681D4324F400334E
:102F80000C8943EA04430E4CA0420BD00D4CA042E6
:102F900008D00D4CA04205D00C4CA04202D00C4CE5
:102FA000A04204D14C6922F4803242EA04224260F9
:102FB000056549688164036230BD00008FFFFEFF34
:102FC000002C014000340140004001400044014019
:102FD0000048014030B5026A22F480120262046A9D
:102FE0004268036D114D24F400142B400D6843EA30
:102FF00005230D8944EA05540D4DA8420BD00D4D13
:10300000A84208D00C4DA84205D00C4DA84202D0D1
:103010000B4DA84204D14D6922F4802242EA852258
:10302000426003654968C164046230BDFF8FFFFEE2
:10303000002C0140003401400040014000440140A8
:103040000048014010B5036A046A24F001040462D8
:10305000846924F0F00444EA021423F00A020A43CB
:103060008461026210BD10B5036A23F0100303628D
:103070008369046A23F4704343EA023224F0A00314
:1030800043EA01118261016210BD000030B5416E5A
:10309000B9B1026891689268C1F342610B4B520F5B
:1030A0009C5CE50003F10804A25CB5FBF2F2A0F819
:1030B0006A205A5C615CD200B2FBF1F1A0F86810A2
:1030C00030BD0121A0F86A10F8E700001C56000886
:1030D00090F82810C90706D001684A68C36A22F42C
:1030E00000321A434A6090F82810890706D5016813
:1030F0004A68036B22F480321A434A6090F8281021
:10310000490706D501684A68436B22F480221A43B6
:103110004A6090F82810090706D501684A68836B51
:1031200022F400421A434A6090F82810C90606D5D6
:1031300001688A68C36B22F480521A438A6090F84F
:103140002810890606D501688A68036C22F40052AB
:103150001A438A6090F82810490611D501684A6818
:10316000436C22F480121A434A60416CB1F5801F0F
:1031700006D101684A68836C22F4C0021A434A608F
:1031800090F82810090606D501684A68C06C22F438
:10319000002202434A607047F8B500260446C0F892
:1031A0008C60FDF791FA0546206800686FF07E4755
:1031B000000708D52B4600224FF400112046009747
:1031C00000F02CFC60B92068006840070AD52B4647
:1031D00000224FF480012046009700F01FFC08B148
:1031E0000320F8BD2020C4F88400C4F8880044F807
:1031F0006C6F00202675F8BD10B5806A0021A0F81C
:103200005E10A0F85610FEF799FC10BD10B50268CC
:1032100052E8001F21F4907142E80013002BF6D110
:103220000E4B0268083252E8001F194042E80014B1
:10323000002CF6D1C16E012908D1016851E8002F98
:1032400022F0100241E80023002BF6D12021C0F823
:1032500088100021C166016710BD0000FEFFFFEF6E
:1032600010B5B0F86020D0F888300168222B04D067
:10327000886940F00800886110BD496A836D11407B
:103280001980816D891C8165B0F85E10491EA0F817
:103290005E10B0F85E100029EED1026852E8001FFF
:1032A00021F4907142E80013002BF6D10168083137
:1032B00051E8002F22F0010241E80023002BF5D154
:1032C0002021C0F8881000210167C26E012A02D0B7
:1032D000FEF74CFE10BDC166026852E8001F21F0E7
:1032E000100142E80013002BF6D10168CA69D243ED
:1032F000D20601D410220A62B0F85C10FEF7CEFBB1
:1033000010BD00002DE9F0470446B0F86060006889
:10331000C569D0F800A0D0F80880D4F88810222918
:1033200005D0816941F008018161BDE8F087B4F8FA
:1033300068704FF0000963E02068406AA16D30407A
:103340000880A06D801CA065B4F85E00401EA4F843
:103350005E002068C569690730D0E9070AD05FEAD6
:10336000CA5107D501210162D4F88C0040F0010058
:10337000C4F88C00A8070BD55FEAC87008D0216894
:1033800002200862D4F88C0040F00400C4F88C00DD
:1033900068070BD55FEAC87008D02168042008626E
:1033A000D4F88C0040F00200C4F88C00D4F88C00F3
:1033B00020B12046FEF7C2FBC4F88C90B4F85E0042
:1033C000F0B9216851E8000F20F4807041E8000254
:1033D000002AF6D1264A2068083050E8001F114024
:1033E00040E80013002BF6D12020C4F88800C4F870
:1033F0007090E16E4846012923D02046FEF7B6FDC5
:103400000FB1A80698D4B4F85E0000288DD0B4F8A7
:103410006810814289D92068083050E8001F21F0E7
:10342000805140E80012002AF5D112482067206838
:1034300050E8001F41F0200140E80012002AF6D1B8
:1034400073E7E066216851E8000F20F0100041E8C2
:103450000002002AF6D12068C169C943C90601D417
:1034600010210162B4F85C102046FEF717FBC7E795
:10347000FEFFFFEF6132000810B5B0F86020D0F811
:1034800088300168222B04D0886940F008008861E8
:1034900010BD496A1140826D1170816D491C8165B2
:1034A000B0F85E10491EA0F85E10B0F85E1000295A
:1034B000EED1026852E8001F21F4907142E8001337
:1034C000002BF6D10168083151E8002F22F00102EB
:1034D00041E80023002BF5D12021C0F888100021FD
:1034E0000167C26E012A02D0FEF740FD10BDC16621
:1034F000026852E8001F21F0100142E80013002B7F
:10350000F6D10168CA69D243D20601D410220A62F8
:10351000B0F85C10FEF7C2FA10BD00002DE9F047CC
:103520000446B0F860600068C569D0F800A0D0F823
:103530000880D4F88810222905D0816941F008015B
:103540008161BDE8F087B4F868704FF0000963E06E
:103550002068406AA16D30400870A06D401CA065D5
:10356000B4F85E00401EA4F85E002068C5696907D3
:1035700030D0E9070AD05FEACA5107D501210162BC
:10358000D4F88C0040F00100C4F88C00A8070BD5DB
:103590005FEAC87008D0216802200862D4F88C0065
:1035A00040F00400C4F88C0068070BD55FEAC870CF
:1035B00008D0216804200862D4F88C0040F0020092
:1035C000C4F88C00D4F88C0020B12046FEF7B6FA7F
:1035D000C4F88C90B4F85E00F0B9216851E8000F8F
:1035E00020F4807041E80002002AF6D1264A2068C3
:1035F000083050E8001F114040E80013002BF6D1BE
:103600002020C4F88800C4F87090E16E4846012973
:1036100023D02046FEF7AAFC0FB1A80698D4B4F830
:103620005E0000288DD0B4F86810814289D92068E6
:10363000083050E8001F21F0805140E80012002AB5
:10364000F5D112482067216851E8000F40F02000B2
:1036500041E80002002AF6D173E7E066216851E8EC
:10366000000F20F0100041E80002002AF6D1206887
:10367000C169C943C90601D410210162B4F85C10C4
:103680002046FEF70BFAC7E7FEFFFFEF793400088C
:103690002DE9F0410446016880682269E36910431E
:1036A000626900251A431043DFF82CC20A688B4B6D
:1036B0001A4002430A6020684168E26821F44051E0
:1036C000114341602168A069614501D0226A10431D
:1036D0008A68834B1A4002438A602068C16A626A22
:1036E00021F00F011143C1627E4923687E488B425D
:1036F0000DD1D0F8880010F0030006D0012855D075
:10370000022842D003283FD152E001203DE0774912
:103710008B420BD1D0F8880010F00C0035D0042873
:1037200033D0082840D00C282ED141E070498B427C
:103730000BD1D0F8880010F0300026D0102835D0FA
:10374000202831D030281FD132E06A498B420BD17A
:10375000D0F8880010F0C00017D0402826D080286C
:1037600022D0C02810D123E063450DD1D0F88800C5
:1037700010F4406009D0B0F5806F17D0B0F5006F3D
:1037800012D0B0F5406F13D010205B495B4F00267C
:103790004FF4004263453BD160B1022813D00428A6
:1037A0000BD0082872D10DE00220EEE70420ECE7F0
:1037B0000820EAE7FDF7BCFA01E0FDF7DDFA0100B9
:1037C00001D17CE01146606A37F810206768B1FBD0
:1037D000F2F007EB4703834270D8B0EB073F6DD898
:1037E000002308461946FCF713FD090241EA10615F
:1037F00002027808101871413A460023FCF708FDD0
:103800003F4AA0F54071914258D82168C86056E0FF
:10381000E3694FF6EF7893422CD109284ED2DFE8C6
:1038200000F00508114D0D4D4D4D1000FDF780FACB
:1038300001E0FDF78FFA010004D140E0FDF79CFAAA
:10384000F9E71146606A37F81000B1FBF0F041006B
:10385000606801EB5001B1FBF0F0A0F110014145AF
:103860002CD84FF6F0710140C0F3420001432068AC
:10387000C16024E0092821D2DFE800F00509122008
:103880000E2020201100FDF753FA02E016E0FDF7AC
:1038900061FA010004D112E0FDF76EFAF9E7114672
:1038A000606A37F81000B1FBF0F1606801EB50017D
:1038B000B1FBF0F0A0F1100141450AD9012501202A
:1038C000A4F86A0024F8680F2846A660E660BDE800
:1038D000F08180B299E7000000800040F369FFCFDB
:1038E000FFF4FF1100380140001002400044004086
:1038F00000480040004C00400024F400045600083A
:10390000FFFC0F0070B58165A0F85C20A0F85E2078
:103910000021016783684FF48055FF24AB4204D136
:103920000369FBB940F2FF1322E07F26C3B1B3F174
:10393000805F1AD0A0F86010C0F88C102223C0F865
:1039400088300368083353E8004F44F0010443E82B
:103950000046002EF5D1436EB3F1005F0ED032E089
:10396000036943B9A0F86040E6E703691BB13F2350
:10397000A0F86030E0E7A0F86060DDE7B0F86830FC
:10398000934220D88268AA4201D10269CAB11F4A73
:10399000026780F88010016941B1026852E8001F97
:1039A00041F4807142E80013002BF6D10168083120
:1039B00051E8002F42F0805241E80023002BF5D15E
:1039C00021E0134AE4E78268AA4201D102697AB190
:1039D000104A026780F88010016959B1026852E804
:1039E000001F41F4907142E80013002BF6D10AE069
:1039F000094AEEE7026852E8001F41F0200142E860
:103A00000013002BF6D1002070BD00001D3500080A
:103A10000533000879340008613200082DE9F047C9
:103A20009A4617460E4604464FF000094FF020080C
:103A3000089D4AE0681C48D0FCF746FEA0EB0A004F
:103A4000A8422AD84DB32068016849073DD5C0690E
:103A5000C043000539D421684FF400600862206833
:103A600050E8001F21F4D07140E80012002AF6D17E
:103A70002068083050E8001F21F0010140E80012E2
:103A8000002AF5D144F8848FC4F80480C4F8088073
:103A900004F8049C0320BDE8F087216851E8000F7A
:103AA00020F4D07041E80002002AF6D120680830E6
:103AB00050E8001F21F0010140E80012002AF5D172
:103AC00044F8848FC4F80480E2E72068C06936EACD
:103AD000000004D00020B842ACD00020DBE7012079
:103AE000F9E700000148FEF72BB8000004010020B0
:103AF000FEE700000FB4084B10B504A902AA039812
:103B000000F02CF8044602A9002000F0C8F9204675
:103B100010BC5DF814FB00009F3E00080907090E69
:103B2000002804DB00F1E02080F80014704700F06A
:103B30000F0000F1E02080F8141D704702E008C873
:103B4000121F08C1002AFAD170477047002001E017
:103B500001C1121F002AFBD1704700002DE9FF4F61
:103B60008BB088460546002606E025280BD0DDE907
:103B70000D1290476D1C761C28780028F5D10FB0E7
:103B80003046BDE8F08F0024A146A2460122AE498E
:103B900000E0044315F8013F203B02FA03F008421D
:103BA000F7D128782A2810D06FF02F022878A0F1BA
:103BB0003001092915D809EB890102EB410144F0D4
:103BC000020400EB01096D1CF0E758F8041B5FEAE2
:103BD000010903D544F40054C9F1000944F002047A
:103BE0006D1C28782E2817D115F8010F44F0040415
:103BF0002A280ED06FF02F022878A0F13001092971
:103C00000AD80AEB8A0102EB410100EB010A6D1CA4
:103C1000F2E758F804AB6D1C28786C280FD006DC4E
:103C20004C2817D068280DD06A2814D104E07428D5
:103C300010D07A280FD10DE044F400140AE044F4C7
:103C4000801401E044F440146978814202D104F503
:103C500080146D1C6D1C2878692865D006DC00284E
:103C60008DD0632827D0642806D15DE06E2808D067
:103C700073282AD0752877D0DDE90D129047761C7D
:103C8000E0E0C4F30250022809D003280DD0D8F890
:103C9000001004280DD00E6008F10408D2E0D8F816
:103CA0000010F217C1E90062F6E7D8F800100E80A4
:103CB000F2E70E70F0E718F8041B8DF800100020F2
:103CC0008DF80100EB46012003E058F804BB4FF0EB
:103CD000FF3061074FF0000701D40AE07F1C574511
:103CE0000DDA8742FADB1BF807100029F6D106E04F
:103CF0007F1C8742FCDB1BF807100029F8D1DDE9A7
:103D00000D23A9EB07008146214600F0B1F83044AD
:103D1000C61904E0DDE90D121BF8010B90477F1E68
:103D2000F8D22146484688E058F8040BC4F3025103
:103D30004FF00A0B032900D100B2042900D140B290
:103D4000002802DA40422D2102E0210505D52B2171
:103D50008DF82410012104E006E0E10710D02021B5
:103D6000F6E708AF089113E058F8040BC4F30251CA
:103D70004FF00A0B032900D180B2042900D1C0B250
:103D80000021EEE75946FCF78DFA303107F8011DA6
:103D90000028F7D1ADEB070000F1200B600702D53A
:103DA00024F4803401E04FF0010ADA4502DDAAEB89
:103DB0000B0000E00020824600EB0B010898014454
:103DC000A9EB01000A90E00306D4DDE90D232146AA
:103DD0000A9800F04DF806444FF0000908E009A9E0
:103DE00011F80900DDE90D12904709F10109761C6F
:103DF00008998945F3DBE0030CD5DDE90D23214665
:103E00000A9800F035F8064404E0DDE90D12302090
:103E10009047761CBAF10001AAF1010AF5DC05E031
:103E2000DDE90D1217F8010B9047761CBBF100017C
:103E3000ABF1010BF4DC0A982146DDE90D2300F01B
:103E400005F806446D1C97E6092801002DE9F041AC
:103E5000044600251E461746880404D405E039466A
:103E60002020B0476D1C641EF9D52846BDE8F081BE
:103E70002DE9F041044600251E469046C80301D5B1
:103E8000302700E02027880404D505E04146384665
:103E9000B0476D1C641EF9D52846BDE8F0810A685C
:103EA000531C0B601070704710B588B000F092F88A
:103EB000012804D000F08EF802282DD039E02048E7
:103EC000A0F1120401782278914223D141786278DE
:103ED00091421FD18178A27891421BD10179217042
:103EE000427962708079A070002000F05BF80520B4
:103EF000FCF7A2FA6178012000F054F80520FCF7E5
:103F00009BFAA178022000F04DF80520FCF794FA06
:103F10000CA102E00CA100E00DA16846FFF7EAFD4C
:103F20006846FCF7B8F982B2322369460A48FEF7C0
:103F300033F8034900201839887008B010BD00001C
:103F4000200000204F4B0A004572726F72730A0006
:103F50004572726F720A000004010020002100E027
:103F6000491C8142FCD3704710B50446FEF7C2F8E5
:103F7000A020FEF798F8FEF7F3F82046FEF793F836
:103F8000FEF7EEF8FEF7B6F8A120FEF78CF8FEF784
:103F9000E7F8FEF761F80446FEF7E2F8FEF7C5F829
:103FA000204610BD70B50D460446FEF7A3F8A020CC
:103FB000FEF779F8FEF7D4F82046FEF774F8FEF71E
:103FC000CFF82846FEF76FF8FEF7CAF8BDE8704054
:103FD000FEF7ABB80F488078002817D0072816D115
:103FE0000C491831C8782D2811D100200A5C303ACC
:103FF0000A2A0CD2401C0328F8DB04200A5C303A61
:104000000A2A04D2401C0728F8DB0120704702204E
:1040100070470000080000202DE9F0413F480127CB
:104020003F4C81780025012907D12178491CC9B26C
:1040300021700A2900D9277085704179012907D19B
:104040006178491CC9B261700A2900D9677045714D
:10405000017A012907D1A178491CC9B2A1700A29A6
:1040600000D9A77005728046C07A012853D100207C
:10407000FFF77AFF2A4EF61E30700120FCF7DCF9BC
:104080000120FFF771FF70700120FCF7D5F90220C5
:10409000FFF76AFFB0700120FCF7CEF9207806F137
:1040A000370296F800C0135C1E49B01F634524D147
:1040B000637896F801C0D35C63451ED1A378D25CC7
:1040C000B3789A4219D1022202700A68C260096864
:1040D0000161C570477100224FF480711248FCF7EE
:1040E000EEFA124C012204212046FCF7E8FA0022E5
:1040F00004212046FCF7E3FA0BE025706570A570FB
:10410000C278521CD2B2C270032A02D30771096866
:10411000416188F80B50BDE8F0810000600000208C
:10412000110000205C00002000080048000C00483E
:104130002DE9F047474E484C40F2E7383178206887
:104140004FF4FA7906F1090501294AD0022946D12E
:1041500040F2F311C162E1602168322088633FA11F
:1041600005F11600FFF7C6FC05F116013020FEF739
:10417000C3F84FF4FA623CA105F11600FFF7BAFC50
:1041800005F116016020FEF7B7F80A2239A105F102
:104190001600FFF7AFFC05F116017820FEF7ACF82A
:1041A0009020FEF745F83078022818D1344800688E
:1041B000F168401A41F28831884210D92168C1F86B
:1041C0002C80C4F80C802168C1F838900120307030
:1041D0000020FEF71BF8002028706870A870BDE86A
:1041E000F087C0F82C80C4F80C802168C1F83890A2
:1041F000184824A11F30FFF77DFC164930201F31DD
:10420000FEF77AF8134F28783D3721A13A5CA7F1E1
:104210001E00FFF76FFCA7F11E016020FEF76CF88F
:1042200068781EA13A5CA7F11E00FFF763FCA7F1B6
:104230001E017820FEF760F8A8781BA13A5CA7F170
:104240001E00FFF757FCA7F11E019020FEF754F85F
:10425000A9E70000080000206C000020202020209A
:10426000202020535441000020202020463A2534AD
:1042700064487A0020202020443A25642525000047
:104280005C000020202020202020205053440000EB
:104290002020202042313A256300000020202020E9
:1042A00042323A25630000002020202042333A2584
:1042B0006300000070B51D4D28681D4C216941F256
:1042C0008832411A1B481C4E914202D36179012960
:1042D00018D02179012914D129686269891A6429C1
:1042E0000FD34FF40071FCF7E2F9012204213046AC
:1042F000FCF7E5F9002204213046FCF7E0F92868D4
:10430000606170BD01224FF44071FCF7D8F90122C1
:1043100004213046FCF7D3F9002204213046FCF793
:10432000CEF900202071607170BD00005C0000209B
:104330000800002000080048000C0048FCF7D2F9F3
:10434000FEF72FFCFEF72CF9FEF7BAF9FEF722FA7A
:10435000FEF7F4F9FEF712F80020FDF757FF0020F2
:10436000FEF766F84FF6FF742046FEF775F8012257
:1043700021462648FCF7A3F9254C012204212046BA
:10438000FCF79DF9002204212046FCF798F921480A
:1043900040F2E7310268D162C16000684FF4FA71FF
:1043A000816304211B48FDF78FFA1A484C30FCF753
:1043B000E3FF1848012218499830FDF7ADFD31217F
:1043C0000020FFF7EFFD0520FCF736F83221012031
:1043D000FFF7E8FD0520FCF72FF833210220FFF757
:1043E000E1FD0520FCF728F80B483121401D017044
:1043F0003221417033218170FFF70EFEFFF798FEE6
:10440000FFF752FDFFF756FFF6E7000000080048EF
:10441000000C00486C000020090000200000000093
:10442000000000000000000000000000000000008C
:10443000000000000000000000000000000000007C
:1044400000000000000000000000000000008001EB
:104450008001800180018001800180018001800154
:104460008001800180018001000000008001800146
:10447000000000000000000000000000000000003C
:10448000CC00CC00CC00CC00CC00CC000000000064
:10449000000000000000000000000000000000001C
:1044A000000000000000000000000000000000000C
:1044B0000000000000000000600C600C600C300682
:1044C0003006FE1FFE1F300638071803FE1FFE1FB2
:1044D000180318038C018C018C010000000080007F
:1044E000E003F80F9C0E8C1C8C188C009800F801CF
:1044F000E007800E801C8C188C189C18B80CF00FEC
:10450000E0038000800000000000000000000000C8
:1045100000000E181B0C110C1106110611031103DB
:104520009B018E01C038C06C60446044304430440C
:104530001844186C0C380000000000000000E00176
:10454000F0033807180618063003F001F000F800F1
:104550009C310E33061E061C061C063FFC73F02120
:10456000000000000000000000000000000000004B
:104570000C000C000C000C000C000C0000000000F3
:10458000000000000000000000000000000000002B
:104590000000000000000000000000000000000219
:1045A00000038001C000C0006000600030003000E7
:1045B000300030003000300030003000600060001B
:1045C000C000C000800100030002000000002000C5
:1045D0006000C000800180010003000300060006A7
:1045E00000060006000600060006000600030003A1
:1045F00080018001C0006000200000000000000079
:104600000000000000000000C000C000D806F8074D
:10461000E001300338070000000000000000000047
:10462000000000000000000000000000000000008A
:104630000000000000000000800180018001800176
:104640008001FC3FFC3F80018001800180018001EE
:10465000000000000000000000000000000000005A
:10466000000000000000000000000000000000004A
:1046700000000000000000000000000000008001B9
:104680008001000100018000000000000000000027
:10469000000000000000000000000000000000001A
:1046A00000000000E007E00700000000000000003C
:1046B00000000000000000000000000000000000FA
:1046C00000000000000000000000000000000000EA
:1046D0000000000000000000000000000000C0001A
:1046E000C000000000000000000000000000000CFE
:1046F000000C000600060006000300030003800310
:10470000800180018001C000C000C0006000600026
:104710000000000000000000000000000000E003B6
:10472000F007380E180C0C180C180C180C180C1874
:104730000C180C180C180C18180C380EF007E003A5
:104740000000000000000000000000000000000168
:104750008001C001F0019801880180018001800181
:104760008001800180018001800180018001800141
:104770000000000000000000000000000000E00356
:10478000F80F180C0C180C1800180018000C000674
:1047900000038001C000600030001800FC1FFC1FF7
:1047A0000000000000000000000000000000E00128
:1047B000F807180E0C0C0C0C000C0006C003C00708
:1047C000000C001800180C180C18180CF807E0035F
:1047D0000000000000000000000000000000000CCD
:1047E000000E000F000F800DC00C600C600C300C30
:1047F000180C0C0CFC3FFC3F000C000C000C000CD7
:104800000000000000000000000000000000F80FA1
:10481000F80F180018000C00EC03FC071C0E001C1D
:104820000018001800180C181C0C180EF807E003EC
:104830000000000000000000000000000000C007B1
:10484000F00F381C181818000C00CC03EC0F3C0EAD
:104850001C1C0C180C180C18181C380EF007E00360
:104860000000000000000000000000000000FC1F2D
:10487000FC1F000C00060006000380038001C0013D
:10488000C000E000600060007000300030003000C8
:104890000000000000000000000000000000E00335
:1048A000F007380E180C180C180C3806F007F00733
:1048B000180C0C180C180C180C18380CF80FE00316
:1048C0000000000000000000000000000000E00305
:1048D000F007380E1C0C0C180C180C181C1C381E79
:1048E000F81BE0190018000C000C1C0EF807F00172
:1048F00000000000000000000000000000000000B8
:1049000000000000000000008001800100000000A5
:104910000000000000000000000000008001800195
:104920000000000000000000000000000000000087
:104930000000000000000000800180010000000075
:104940000000000000000000000000008001800165
:1049500000010001800000000000000000000000D5
:104960000000000000000000000000000010001C1B
:10497000800FE003F8001800F800E003800F001C2F
:104980000010000000000000000000000000000017
:10499000000000000000000000000000F81F000000
:1049A00000000000F81F00000000000000000000F0
:1049B00000000000000000000000000000000000F7
:1049C00000000000000000000000000008003800A7
:1049D000F001C007001F0018001FC007F0013800D9
:1049E0000800000000000000000000000000E003DC
:1049F000F80F180C0C180C180018000C0006000317
:104A00008001C000C000C00000000000C000C00065
:104A10000000000000000000000000000000000096
:104A2000E00718180420C229224A11440944094405
:104A3000094409221113E20C024004201818E0076F
:104A400000000000000000000000000000008003E3
:104A50008003C006C006C006600C600C3018301819
:104A60003018F83FF83F1C700C600C6006C006C0A0
:104A70000000000000000000000000000000FC0337
:104A8000FC0F0C0C0C180C180C180C0CFC07FC0F71
:104A90000C180C300C300C300C300C18FC1FFC07C0
:104AA0000000000000000000000000000000C0073F
:104AB000F01F38381C300C70066006000600060037
:104AC00006000600060006600C701C30F01FE007B0
:104AD0000000000000000000000000000000FE03D5
:104AE000FE0F060E06180618063006300630063091
:104AF00006300630063006180618060EFE0FFE03B6
:104B00000000000000000000000000000000FC3F6A
:104B1000FC3F0C000C000C000C000C00FC1FFC1FE8
:104B20000C000C000C000C000C000C00FC3FFC3FC7
:104B30000000000000000000000000000000F83F3E
:104B4000F83F18001800180018001800F81FF81F88
:104B50001800180018001800180018001800180095
:104B60000000000000000000000000000000E00F56
:104B7000F83F3C780E6006E007C00300030003FE28
:104B800003FE03C007C006C00EC03CF0F83FE00FB4
:104B900000000000000000000000000000000C30D9
:104BA0000C300C300C300C300C300C30FC3FFC3F27
:104BB0000C300C300C300C300C300C300C300C3015
:104BC0000000000000000000000000000000800164
:104BD00080018001800180018001800180018001CD
:104BE00080018001800180018001800180018001BD
:104BF00000000000000000000000000000000006AF
:104C00000006000600060006000600060006000674
:104C1000000600060006180618063807F003E00133
:104C2000000000000000000000000000000006304E
:104C30000618060C060606038601C6006600760006
:104C4000DE008E0106030606060C06180630066016
:104C5000000000000000000000000000000018003C
:104C60001800180018001800180018001800180084
:104C7000180018001800180018001800F81FF81F76
:104C800000000000000000000000000000000EE036
:104C90001EF01EF01EF036D836D836D836D866CC80
:104CA00066CC66CCC6C6C6C6C6C6C6C686C386C3DE
:104CB00000000000000000000000000000000C30B8
:104CC0001C303C303C306C306C30CC30CC308C31D3
:104CD0000C330C330C360C360C3C0C3C0C380C30C2
:104CE0000000000000000000000000000000E007DD
:104CF000F81F1C380E70066003C003C003C003C059
:104D000003C003C003C006600E701C38F81FE00724
:104D10000000000000000000000000000000FC0F88
:104D2000FC1F0C380C300C300C300C300C18FC1FF5
:104D3000FC070C000C000C000C000C000C000C001C
:104D40000000000000000000000000000000E0077C
:104D5000F81F1C380E70066003E003C003C003C0D8
:104D600003C003C007E006630E3F1C3CF83FE0F7BA
:104D700000C0000000000000000000000000FE0F66
:104D8000FE1F06380630063006300638FE1FFE07C6
:104D900006030606060C06180618063006300660DE
:104DA0000000000000000000000000000000E00320
:104DB000F80F1C0C0C180C180C001C00F803E00F6A
:104DC000001E0038063006300E301C1CF80FE007BD
:104DD0000000000000000000000000000000FE7F56
:104DE000FE7F8001800180018001800180018001BF
:104DF00080018001800180018001800180018001AB
:104E000000000000000000000000000000000C3066
:104E10000C300C300C300C300C300C300C300C30B2
:104E20000C300C300C300C300C301818F81FE00728
:104E3000000000000000000000000000000003600F
:104E40000630063006300C180C180C18180C180C0C
:104E5000380E30063006700760036003C001C001E1
:104E600000000000000000000000000000000360DF
:104E7000C361C361C36166336633663366336633C9
:104E800066336C1B6C1B6C1B2C1A3C1E380E380EC8
:104E900000000000000000000000000000000FE023
:104EA0000C7018303018700C600EC007800380033F
:104EB000C003E006700C301C18180C300E6007E0C0
:104EC000000000000000000000000000000003C01F
:104ED00006600C301C383818300C6006E007C00340
:104EE00080018001800180018001800180018001BA
:104EF0000000000000000000000000000000FC7F37
:104F0000FC7F006000300018000C000600038001E8
:104F1000C0006000300018000C000600FE7FFE7F1D
:104F20000000000000000000000000000000E0039E
:104F3000E0036000600060006000600060006000EE
:104F40006000600060006000600060006000600061
:104F5000600060006000E003E0030000000030003B
:104F60003000600060006000C000C000C000C001F0
:104F70008001800180010003000300030006000699
:104F80000000000000000000000000000000E0033E
:104F9000E003000300030003000300030003000319
:104FA00000030003000300030003000300030003E9
:104FB000000300030003E003E00300000000000022
:104FC000C001C00160036003600330063006180CA6
:104FD000180C0000000000000000000000000000AD
:104FE00000000000000000000000000000000000C1
:104FF00000000000000000000000000000000000B1
:105000000000000000000000000000000000FFFFA2
:10501000FFFF0000000000000000000000000C0086
:105020000C000C000C000C000C0000000000000044
:105030000000000000000000000000000000000070
:105040000000000000000000000000000000000060
:105050000000000000000000F003F8071C0C0C0C1E
:10506000000FF00FF80C0C0C0C0C1C0FF80FF018C4
:105070000000000000000000000000000000180018
:105080001800180018001800D803F80F380C18186A
:1050900018181818181818181818380CF80FD803FA
:1050A0000000000000000000000000000000000000
:1050B0000000000000000000C003F007300E180CD4
:1050C0001800180018001800180C300EF007C00364
:1050D00000000000000000000000000000000018B8
:1050E0000018001800180018C01BF01F301C1818FA
:1050F00018181818181818181818301CF01FC01B8A
:10510000000000000000000000000000000000009F
:105110000000000000000000C003F00F300C181861
:10512000F81FF81F180018003818301CF00FC007BF
:105130000000000000000000000000000000800FE0
:10514000C00FC000C000C000F007F007C000C000E2
:10515000C000C000C000C000C000C000C000C0004F
:10516000000000000000000000000000000000003F
:105170000000000000000000E00DF80F180E0C0CFD
:105180000C0C0C0C0C0C0C0C0C0C180EF80FE00D8D
:10519000000C0C0C1C06F807F001000000001800C1
:1051A0001800180018001800D807F80F381C181835
:1051B000181818181818181818181818181818186F
:1051C0000000000000000000000000000000C0001F
:1051D000C000000000000000C000C000C000C0000F
:1051E000C000C000C000C000C000C000C000C000BF
:1051F0000000000000000000000000000000C000EF
:10520000C000000000000000C000C000C000C000DE
:10521000C000C000C000C000C000C000C000C0008E
:10522000C000C000C000F8007800000000000C00C2
:105230000C000C000C000C000C0C0C060C038C0178
:10524000CC006C00FC009C018C030C030C060C0CC5
:105250000000000000000000000000000000C0008E
:10526000C000C000C000C000C000C000C000C0003E
:10527000C000C000C000C000C000C000C000C0002E
:10528000000000000000000000000000000000001E
:1052900000000000000000007C3CFF7EC7E383C1EB
:1052A00083C183C183C183C183C183C183C183C1DE
:1052B00000000000000000000000000000000000EE
:1052C00000000000000000009807F80F381C1818B4
:1052D000181818181818181818181818181818184E
:1052E00000000000000000000000000000000000BE
:1052F0000000000000000000C003F00F300C181880
:1053000018181818181818181818300CF00FC003AF
:10531000000000000000000000000000000000008D
:105320000000000000000000D803F80F380C181827
:1053300018181818181818181818380CF80FD80357
:1053400018001800180018001800000000000000E5
:105350000000000000000000C01BF01F301C1818E7
:1053600018181818181818181818301CF01FC01B17
:1053700000180018001800180018000000000000B5
:105380000000000000000000B007F00370003000D3
:10539000300030003000300030003000300030008D
:1053A00000000000000000000000000000000000FD
:1053B0000000000000000000E003F003380E180CAD
:1053C0003800F003C007000C180C380EF007E0039B
:1053D00000000000000000000000000000000000CD
:1053E0008000C000C000C000F007F007C000C0008F
:1053F000C000C000C000C000C000C000C0078007DF
:10540000000000000000000000000000000000009C
:1054100000000000000000001818181818181818CC
:1054200018181818181818181818381CF01FE01930
:10543000000000000000000000000000000000006C
:1054400000000000000000000C18180C180C180CCC
:10545000300630063006600360036003C001C001FF
:10546000000000000000000000000000000000003C
:105470000000000000000000C141C141C36163633E
:10548000636363633636363636361C1C1C1C1C1CA4
:10549000000000000000000000000000000000000C
:1054A00000000000000000001C38381C300C6006B2
:1054B00060036003600360036006300C381C1C3816
:1054C00000000000000000000000000000000000DC
:1054D000000000000000000018303018301870186C
:1054E000600C600CE00CC006C006800380038003E3
:1054F00080018001C001F000700000000000000089
:105500000000000000000000FC1FFC1F000C000653
:1055100000038001C000600030001800FC1FFC1F69
:105520000000000000000000000000000000000378
:105530008001C000C000C000C000C000C00060000A
:105540006000300060004000C000C000C000C0002B
:10555000C000C000800100030000000000008001C6
:105560008001800180018001800180018001800133
:105570008001800180018001800180018001800123
:105580008001800180018001800100000000600036
:10559000C000C00180018001800180018001000302
:1055A00000030006000300018001800180018001EA
:1055B00080018001C00060000000000000000000C9
:1055C000000000000000000000000000F010F81FC4
:1055D000080F0000000000000000000000000000B4
:1055E00000000000000000000000000000000000BB
:1055F0000000000001020304060708090000000083
:1056000001020304010002000400060008000A0071
:105610000C00100020004000800000010101010387
:105620000701000008040204080101014C560008AB
:1056300000000020600000003C3B0008AC56000861
:1056400060000020380500004C3B00080000FFFF10
:105650000000000001000000000040404000000089
:10566000000000000000000000000000000000003A
:1056700000000040000000000000000000000000EA
:10568000000000000000000000000000000000001A
:105690000040303132333435363738390024F400A5
:0C56A000100000000100000000000000ED
:04000005080001D915
:00000001FF
